:100000000C9434000C9451000C9451000C94510049
:100010000C9451000C9451000C9451000C9451001C
:100020000C9451000C9451000C9451000C944E0B04
:100030000C9451000C9451000C94FF080C94510046
:100040000C9451000C9451000C9451000C945100EC
:100050000C9451000C9451000C9451000C945100DC
:100060000C9451000C94510011241FBECFEFD8E026
:10007000DEBFCDBF12E0A0E0B1E0EEE3F2E302C0EC
:1000800005900D92A832B107D9F713E0A8E2B2E0CB
:1000900001C01D92A134B107E1F70E94DA030C946C
:1000A0001D190C940000FC0180917A0080688093F7
:1000B0007A0080819181009749F480917C008F774C
:1000C00080937C0080917C008F7B0EC0019721F48F
:1000D00080917C008F7703C080917C008068809342
:1000E0007C0080917C00806480937C00828193817D
:1000F000009721F480917C008E7F06C081309105AD
:1001000049F480917C00816080937C0080917C0028
:100110008D7F12C08230910521F480917C008E7F0A
:1001200006C08330910571F480917C0081608093DA
:100130007C0080917C00826080937C0080917C00B8
:100140008B7F13C0049721F480917C008E7F03C0C5
:1001500080917C00816080937C0080917C008D7F09
:1001600080937C0080917C00846080937C008091EF
:100170007C00877F80937C0084819581009749F47F
:1001800080917A008E7F80937A0080917A008D7FB3
:100190000BC08130910571F480917A008E7F80933D
:1001A0007A0080917A00826080937A0080917A0050
:1001B0008B7F2DC08230910521F480917A0081607F
:1001C000EECF8330910521F480917A008E7F06C0B6
:1001D0008430910549F480917A00816080937A009F
:1001E00080917A008D7F0EC0059721F480917A006E
:1001F0008E7F03C080917A00816080937A00809125
:100200007A00826080937A0080917A008460809383
:100210007A000895F999FECF81BD60BDFA9AF99AE6
:100220000895F999FECF81BDF89A80B5089584307C
:1002300008F062C0882319F46730A0F00895813077
:1002400019F4683040F10895823021F4693008F4DF
:100250003BC008958130F9F0813020F0823009F000
:100260004BC032C0452B61F424B181E090E002C064
:10027000880F991F6A95E2F78095822384B90895C3
:1002800024B181E090E002C0880F991F6A95E2F7DF
:10029000282B24B90895452B61F427B181E090E023
:1002A00002C0880F991F6A95E2F78095822387B96B
:1002B000089527B181E090E002C0880F991F6A95E8
:1002C000E2F7282B27B90895452B61F42AB181E084
:1002D00090E002C0880F991F6A95E2F7809582230B
:1002E0008AB908952AB181E090E002C0880F991F71
:1002F0006A95E2F7282B2AB90895843008F062C085
:10030000882319F46730A0F00895813019F468301B
:1003100040F10895823021F4693008F43BC008951B
:100320008130F9F0813020F0823009F04BC032C0CA
:10033000442361F425B181E090E002C0880F991F49
:100340006A95E2F78095822385B9089525B181E009
:1003500090E002C0880F991F6A95E2F7282B25B913
:100360000895442361F428B181E090E002C0880F31
:10037000991F6A95E2F78095822388B9089528B17C
:1003800081E090E002C0880F991F6A95E2F7282B60
:1003900028B90895442361F42BB181E090E002C0B4
:1003A000880F991F6A95E2F7809582238BB908958B
:1003B0002BB181E090E002C0880F991F6A95E2F7A7
:1003C000282B2BB90895843018F5882319F4673049
:1003D00090F01EC0813019F4683078F019C0823076
:1003E00019F4693060F014C0813039F0813018F0B0
:1003F000823071F404C083B103C086B101C089B1F9
:1004000090E002C0959587956A95E2F7817008950E
:1004100080E00895843060F4813039F0813018F044
:10042000823031F404C064B9089567B908956AB997
:100430000895843060F4813039F0813018F08230D2
:1004400031F404C065B9089568B908956BB9089589
:10045000843068F4813039F0813018F0823039F41A
:1004600004C083B1089586B1089589B1089580E0EC
:10047000089580E58093B800ECEBF0E08081846023
:1004800080830895982F84EA8093BC008091BC00FB
:1004900087FFFCCF8091B900887F883011F080E021
:1004A00008959093BB0084E88093BC008091BC00C9
:1004B00087FFFCCF8091B900887F883111F481E0FB
:1004C0000895803211F083E0089582E00895982F16
:1004D00084EA8093BC008091BC0087FFFCCF8091B0
:1004E000B900887F803111F080E008959093BB00BF
:1004F00084E88093BC008091BC0087FFFCCF809192
:10050000B900887F803411F481E00895883411F0B7
:1005100083E0089582E008958093BB0084E880938F
:10052000BC008091BC0087FFFCCF8091B900887F20
:10053000883211F480E00895803311F082E008954C
:1005400081E0089584EC8093BC008091BC0087FF1B
:10055000FCCF8091BB00089584E88093BC0080911B
:10056000BC0087FFFCCF8091BB00089584E9809395
:10057000BC008091BC0084FDFCCF08958093BA003C
:1005800084EC8093BC0008958091BC0087FFFCCF71
:100590008091B900887F803659F0883649F0883AD2
:1005A00049F0803B39F0803739F0883769F704C06B
:1005B00080E0089581E0089582E008958093BB0073
:1005C00084EC8093BC008091BC0087FFFCCF8091BD
:1005D000B900887F803A39F48091BC0080688093AC
:1005E000BC008FEF0895883B11F480E00895803CB3
:1005F00039F48091BC0080688093BC008EEF089530
:10060000883C11F08CEF08958DEF089584EC809371
:10061000BC008091BC0087FFFCCF8091B900887F2F
:10062000803831F0803921F0883811F0883919F498
:100630008091BB000895803A11F08EEF089580916B
:10064000BC0080688093BC008FEF08958F929F92CA
:10065000AF92BF92CF92DF92EF92FF920F931F93D0
:10066000DF93CF930F92CDB7DEB75C0184E0A8167D
:10067000B10421F093E0E92EF12C03C084E0E82ED0
:10068000F12CDD24DA94198200E0CC2482E0602F82
:1006900041E00E947D0188249924182D682D6E0D5B
:1006A00082E00E94E301813099F41C0DE12FF0E01B
:1006B00084E0A816B10431F4E050FF4FD080E1E0AF
:1006C000E9830CC0E05FFE4FD080F1E0F98306C003
:1006D0000894811C911C8E149F04FCF282E0602F10
:1006E00040E00E947D018981813029F00F5FE4E0C4
:1006F000CE0E043059F68D2D0F90CF91DF911F91C2
:100700000F91FF90EF90DF90CF90BF90AF909F90B0
:100710008F90089582E060E041E050E00E94170170
:1007200082E061E041E050E00E94170182E062E077
:1007300041E050E00E94170182E063E041E050E0B8
:100740000E94170182E064E040E050E00E9417013F
:1007500082E065E040E050E00E94170182E066E040
:1007600040E050E00E94170182E067E040E050E086
:100770000E94170182E060E040E00E947D0182E07B
:1007800061E040E00E947D0182E062E040E00E9482
:100790007D0182E063E040E00E947D0108952091A8
:1007A0008500922F80E02091840030E0282B392BA7
:1007B000C9010895CF92DF92EF92FF920F931F939A
:1007C000DF93CF93CDB7DEB769970FB6F894DEBF4E
:1007D0000FBECDBF0E94381081E06FEF0E940A0269
:1007E00081E060E00E9419021F821986188685E068
:1007F00090E09B878A871D861C861F861E86CE01F9
:1008000007960E94010681E063E040E050E00E940C
:1008100017011A82198283E090E09C838B8386E023
:1008200090E09E838D83CE0101960E94530080E963
:10083000C82E81E0D82E0E944B108332E1F78091C0
:10084000850090918400F82EEE24092F10E00E29E7
:100850001F2981E060E041E00E947D0180E197E294
:10086000F6013197F1F70197D9F7C80160E177E216
:100870000E94911860932802C80160E177E20E940B
:1008800091189C0168EE73E00E9491186093290210
:10089000C90168EE73E00E9491189C0164E670E063
:1008A0000E94911860932A02C90164E670E00E94D8
:1008B00091189C016AE070E00E94911860932B02ED
:1008C000C9016AE070E00E94911880932C0281E0D7
:1008D00061E041E00E947D0108E212E0F8018081C0
:1008E0000E94421084EF91E0F6013197F1F70197F1
:1008F000D9F70F5F1F4FF2E00D321F0779F780E144
:1009000097E2F6013197F1F70197D9F781E062E0BC
:1009100041E00E947D0180E197E2F6013197F1F715
:100920000197D9F781E060E00E94190284CF1F93FC
:10093000E62FF0E0E45EFE4F1081612F0E94190265
:10094000129516951695137010FF04C080E060E0B4
:1009500041E003C080E060E040E00E947D011F9123
:1009600008956FEF0E940A0280E060E041E050E0ED
:100970000E94170108958EBD8DB508958DB58EB571
:1009800008952CB520642CBD2CB520622CBD2CB54F
:10099000277F2CBD2CB52B7F2CBD2CB522602CBD08
:1009A0002CB521602CBD2DB521602DBD892BD1F436
:1009B0008CB580618CBD80E065E041E050E00E9434
:1009C000170180E064E040E050E00E94170180E001
:1009D00063E041E050E00E94170180E062E041E006
:1009E00050E019C08CB58F7E8CBD80E065E040E0A2
:1009F00050E00E94170180E064E041E050E00E9476
:100A0000170180E063E040E050E00E94170180E0C1
:100A100062E040E050E00E9417010895FC018FB7AA
:100A20008F778FBF208126BD818587BD828588BD58
:100A300081819281009719F484B58E7F05C0813041
:100A4000910531F484B5816084BD84B58D7F0EC07D
:100A50008230910519F484B58E7F05C083309105ED
:100A600049F484B5816084BD84B5826084BD85B558
:100A7000877F10C0049731F484B5816084BD84B54C
:100A80008D7F05C084B5816084BD84B5826084BDDE
:100A900085B5886085BD83819481009719F485B5FB
:100AA0008E7F05C08130910531F485B5816085BDAB
:100AB00085B58D7F0EC08230910519F485B58E7F86
:100AC00005C08330910549F485B5816085BD85B544
:100AD000826085BD85B58B7F0DC0049719F485B5FF
:100AE0008E7F02C085B5816085BD85B58D7F85BD52
:100AF00085B5846085BD85819681009719F484B59C
:100B00008F770AC08130910519F484B58F770AC0B8
:100B1000029731F484B5806884BD84B58F7B05C0AD
:100B200084B5806884BD84B5806484BD87819085E8
:100B3000009719F484B58F7D0AC08130910519F4AE
:100B400084B58F7D0AC0029731F484B5806284BD7C
:100B500084B58F7E05C084B5806284BD84B5806114
:100B600084BD8385813021F480916E00826003C052
:100B700080916E008D7F80936E008485813021F49A
:100B800080916E00846003C080916E008B7F8093A3
:100B90006E008585813021F480916E00816003C0F4
:100BA00080916E008E7F80936E0020930E03818172
:100BB00092819093100380930F038381948190938B
:100BC000120380931103858196819093140380937F
:100BD0001303878190859093160380931503818575
:100BE00080931703828580931803A9E1B3E03B96B5
:100BF00083E001900D928150E1F78FB780688FBF3D
:100C00000895FC018FB78F778FBF208120938400D8
:100C1000818580938800838580938A008585809371
:100C2000860081819281009721F4809180008E7FDF
:100C300006C08130910571F48091800081608093BD
:100C40008000809180008D7F809380008091810062
:100C5000877F3DC08230910521F4809180008E7F96
:100C600006C08330910549F48091800081608093B3
:100C70008000809180008260E7CF8430910521F46C
:100C8000809180008E7F06C08530910549F4809167
:100C90008000816080938000809180008D7F12C0F1
:100CA0008630910521F4809180008E7F06C08730C8
:100CB000910599F4809180008160809380008091FB
:100CC00080008260809380008091810088608093A2
:100CD0008100809181008F7E4FC08830910521F482
:100CE000809180008E7F06C08930910571F48091DB
:100CF0008000816080938000809180008D7F809350
:100D0000800080918100877F32C08A30910521F474
:100D1000809180008E7F06C08B30910549F48091D0
:100D20008000816080938000809180008260E7CFA6
:100D30008C30910549F4809180008E7F80938000F3
:100D4000809180008D7F0EC00D9721F480918000EE
:100D50008E7F03C0809180008160809380008091AD
:100D60008000826080938000809181008860809301
:100D700081008091810080618093810083819481D2
:100D8000009721F4809181008E7F06C0813091050B
:100D900049F480918100816080938100809181007D
:100DA0008D7F12C08230910521F4809181008E7F69
:100DB00006C08330910571F4809181008160809339
:100DC0008100809181008260809381008091810008
:100DD0008B7F26C08430910521F4809181008E7F25
:100DE00006C08530910549F480918100816080932F
:100DF0008100809181008D7F0EC0069721F4809143
:100E000081008E7F03C0809181008160809381008A
:100E10008091810082608093810080918100846054
:100E20008093810085819681009721F480918000D4
:100E30008F770CC08130910521F4809180008F77ED
:100E40000EC0029749F480918000806880938000F2
:100E5000809180008F7B08C08091800080688093A3
:100E600080008091800080648093800087819085DD
:100E7000009721F4809180008F7D0CC08130910516
:100E800021F4809180008F7D0EC0029749F48091FB
:100E90008000806280938000809180008F7E08C0F7
:100EA00080918000806280938000809180008061CA
:100EB000809380008785813021F480916F0082606B
:100EC00003C080916F008D7F80936F008089813097
:100ED00021F480916F00846003C080916F008B7F4C
:100EE00080936F008189813021F480916F0081604F
:100EF00003C080916F008E7F80936F008289813064
:100F000021F480916F00806203C080916F008F7D1B
:100F100080936F0020931C038181928190931E0324
:100F200080931D03838194819093200380931F03FA
:100F300085819681909322038093210387819085F8
:100F400090932403809323038185928590932603B5
:100F500080932503838594859093280380932703AA
:100F600087859089A189B28980932B0390932C0364
:100F7000A0932D03B0932E038FB780688FBF089581
:100F8000FC018FB78F778FBF20812093B2008185BE
:100F90008093B30082858093B40081819281009711
:100FA00021F48091B0008E7F06C08130910549F414
:100FB0008091B00081608093B0008091B0008D7FFF
:100FC00012C08230910521F48091B0008E7F06C05E
:100FD0008330910571F48091B00081608093B000FE
:100FE0008091B00082608093B0008091B100877FD3
:100FF00018C0049749F48091B00081608093B000DC
:101000008091B0008D7F08C08091B0008160809396
:10101000B0008091B00082608093B0008091B100F8
:1010200088608093B10083819481009721F480913E
:10103000B1008E7F06C08130910549F48091B100E6
:1010400081608093B1008091B1008D7F12C08230A9
:10105000910521F48091B1008E7F06C08330910507
:1010600071F48091B10081608093B1008091B100F2
:1010700082608093B1008091B1008B7F26C0843064
:10108000910521F48091B1008E7F06C085309105D5
:1010900049F48091B10081608093B1008091B100EA
:1010A0008D7F0EC0069721F48091B1008E7F03C022
:1010B0008091B10081608093B1008091B100826025
:1010C0008093B1008091B10084608093B1008581EC
:1010D0009681009721F48091B0008F770CC0813009
:1010E000910521F48091B0008F770EC0029749F4EA
:1010F0008091B00080688093B0008091B0008F7BB9
:1011000008C08091B00080688093B0008091B000EA
:1011100080648093B00087819085009721F480914E
:10112000B0008F7D0CC08130910521F48091B0001A
:101130008F7D0EC0029749F48091B0008062809349
:10114000B0008091B0008F7E08C08091B0008062B6
:101150008093B0008091B00080618093B00083855F
:10116000813021F480917000826003C08091700012
:101170008D7F809370008485813021F48091700090
:10118000846003C0809170008B7F809370008585A0
:10119000813021F480917000816003C080917000E3
:1011A0008E7F80937000209333038181928190938E
:1011B0003503809334038381948190933703809324
:1011C0003603858196819093390380933803878114
:1011D000908590933B0380933A03818580933C03F1
:1011E000828580933D03AEE3B3E03B9683E00190BC
:1011F0000D928150E1F78FB780688FBF08951F92DD
:101200000F920FB60F9211242F923F924F925F923E
:101210006F927F928F929F92AF92BF92CF92DF9206
:10122000EF92FF920F931F932F933F934F935F93F0
:101230006F937F938F939F93AF93BF93EF93FF939E
:10124000DF93CF9300D00F92CDB7DEB780913D02F0
:1012500020913E0230913F02409140026091410254
:10126000E0914202A091430210914402B82FBF5F67
:1012700091E0B81708F090E0F92FF20F81E0F21733
:1012800008F080E0782F730F81E0731708F080E09A
:10129000582F540F81E0541708F080E0382F360F94
:1012A00081E0361708F080E0282F2E0F81E02E17FE
:1012B00008F080E0982F9A0F81E09A1708F080E0FC
:1012C000810FB0933D02F0933E0270933F02509322
:1012D0004002309341022093420290934302809354
:1012E0004402198222243324442466247724882447
:1012F000992455247DC0852D90E09B838A83FC0131
:1013000013E0EE0FFF1F1A95E1F7E259FD4F7081D0
:10131000618152814381348125819681878198162C
:10132000ECF0891569F58916C8F0981549F572161B
:10133000A8F0271529F5631688F0361509F5441627
:1013400068F04415E9F4351648F05315C9F426162B
:1013500028F06215A9F49981971790F4EA81FB812E
:10136000B3E0EE0FFF1FBA95E1F7E259FD4FA08100
:10137000A983218032804380648075808680978035
:1013800020913D0230913E0240913F025091400237
:101390006091410270914202809143029091440217
:1013A000EA81FB81A3E0EE0FFF1FAA95E1F7E25966
:1013B000FD4FA080B180C280D380E480F58006819B
:1013C00017810E945410232B242B252B262B272BEF
:1013D000282B292B61F4EA81FB81EE0FFF1FEA5BCA
:1013E000FD4FFB83EA830190F081E02D0995539432
:1013F00080914502581608F47ECF70913D026091AD
:101400003E0250913F0240914002309141022091B2
:101410004202909143028091440289156CF1981622
:10142000D9F4981548F18916B9F4271528F17216E0
:1014300099F4361508F1631679F44415E8F044166A
:1014400059F45315C8F0351639F46215A8F026166C
:1014500019F4F9817F1780F010923D0210923E023C
:1014600010923F02109240021092410210924202EA
:10147000109243021092440280913502309136025C
:101480004091370260913802E0913902A0913A020E
:1014900010913B0250913C02082F015091E0081737
:1014A00008F090E0832F815021E0831708F020E0BE
:1014B000B92FB80F91E0B81708F090E0292B842FCE
:1014C000815031E0841708F030E0F22FF80F91E0FE
:1014D000F81708F090E0392B862F815021E086170D
:1014E00008F020E0732F780F91E0781708F090E073
:1014F000292B8E2F815031E08E1708F030E0622FBB
:10150000680F91E0681708F090E0392B8A2F81501E
:1015100021E08A1708F020E0432F480F91E0481798
:1015200008F090E0292B812F815091E0811708F07D
:1015300090E0322F380F21E0381708F020E0922B8E
:101540005150950F00933502B0933602F093370255
:10155000709338026093390240933A0230933B0211
:1015600090933C0280912D0230912E0240912F02E7
:1015700060913002E0913102A09132021091330269
:1015800050913402082F015091E0081708F090E0C4
:10159000832F815021E0831708F020E0B92FB80F86
:1015A00091E0B81708F090E0292B842F815031E0AA
:1015B000841708F030E0F22FF80F91E0F81708F0E8
:1015C00090E0392B862F815021E0861708F020E02B
:1015D000732F780F91E0781708F090E0292B8E2F69
:1015E000815031E08E1708F030E0622F680F91E0F3
:1015F000681708F090E0392B8A2F815021E08A1774
:1016000008F020E0432F480F91E0481708F090E0E1
:10161000292B812F815091E0811708F090E0322F23
:10162000380F21E0381708F020E0922B5150950F29
:1016300000932D02B0932E02F0932F02709330028C
:10164000609331024093320230933302909334021C
:101650000F900F900F90CF91DF91FF91EF91BF917D
:10166000AF919F918F917F916F915F914F913F913A
:101670002F911F910F91FF90EF90DF90CF90BF902F
:10168000AF909F908F907F906F905F904F903F9022
:101690002F900F900FBE0F901F9018951F920F92D2
:1016A0000FB60F9211240F931F932F933F934F93D5
:1016B0005F936F937F938F939F93AF93BF93EF93BA
:1016C000FF9380913502309136024091370260914C
:1016D0003802E0913902A0913A0210913B025091F8
:1016E0003C02082F015091E0081708F090E0832F8A
:1016F000815021E0831708F020E0B92FB80F91E066
:10170000B81708F090E0292B842F815031E084171E
:1017100008F030E0F22FF80F91E0F81708F090E0B1
:10172000392B862F815021E0861708F020E0732F97
:10173000780F91E0781708F090E0292B8E2F8150D8
:1017400031E08E1708F030E0622F680F91E06817E3
:1017500008F090E0392B8A2F815021E08A1708F099
:1017600020E0432F480F91E0481708F090E0292B24
:10177000812F815091E0811708F090E0322F380FCF
:1017800021E0381708F020E0922B5150950F00937C
:101790003502B0933602F0933702709338026093AB
:1017A000390240933A0230933B0290933C0280917D
:1017B0002D0230912E0240912F0260913002E09173
:1017C0003102A09132021091330250913402082F5D
:1017D000015091E0081708F090E0832F815021E03C
:1017E000831708F020E0B92FB80F91E0B81708F080
:1017F00090E0292B842F815031E0841708F030E0ED
:10180000F22FF80F91E0F81708F090E0392B862FAF
:10181000815021E0861708F020E0732F780F91E0C7
:10182000781708F090E0292B8E2F815031E08E1729
:1018300008F030E0622F680F91E0681708F090E040
:10184000392B8A2F815021E08A1708F020E0432F9E
:10185000480F91E0481708F090E0292B812F815024
:1018600091E0811708F090E0322F380F21E038170F
:1018700008F020E0922B5150950F00932D02B09369
:101880002E02F0932F027093300260933102409346
:1018900032023093330290933402FF91EF91BF9163
:1018A000AF919F918F917F916F915F914F913F91F8
:1018B0002F911F910F910F900FBE0F901F901895B1
:1018C000AF92BF92CF92DF92EF92FF920F931F934E
:1018D000DF93CF93CDB7DEB72E970FB6F894DEBF68
:1018E0000FBECDBF122F032FF42EE52ED62EC72EFE
:1018F000B82EA92E19828AEF8A8783E090E09D8313
:101900008C8381E08C8782E090E09B838A83CE0188
:1019100001960E940E051093350200933602F09254
:101920003702E0923802D0923902C0923A02B09265
:101930003B02A0923C0210932D0200932E02F092E3
:101940002F02E0923002D0923102C0923202B09265
:101950003302A092340270913502609136025091A8
:101960003702409138023091390220913A02909129
:101970003B0280913C02181674F3882371F499237A
:1019800051F7222341F7332331F7442321F755231D
:1019900011F7662301F77723F1F62E960FB6F89428
:1019A000DEBF0FBECDBFCF91DF911F910F91FF9092
:1019B000EF90DF90CF90BF90AF900895AF92BF921D
:1019C000CF92DF92EF92FF920F931F93DF93CF930B
:1019D000CDB7DEB763970FB6F894DEBF0FBECDBFAD
:1019E000122F032FF42EE52ED62EC72EB82EA92E99
:1019F00019828AEF90E09B878A8783E090E09D833D
:101A00008C8381E0888B84E090E09B838A83CE0185
:101A100001960E9401061093350200933602F0925F
:101A20003702E0923802D0923902C0923A02B09264
:101A30003B02A0923C0210932D0200932E02F092E2
:101A40002F02E0923002D0923102C0923202B09264
:101A50003302A092340270913502609136025091A7
:101A60003702409138023091390220913A02909128
:101A70003B0280913C02181674F3882371F4992379
:101A800051F7222341F7332331F7442321F755231C
:101A900011F7662301F77723F1F663960FB6F894F2
:101AA000DEBF0FBECDBFCF91DF911F910F91FF9091
:101AB000EF90DF90CF90BF90AF900895AF92BF921C
:101AC000CF92DF92EF92FF920F931F93DF93CF930A
:101AD000CDB7DEB72E970FB6F894DEBF0FBECDBFE1
:101AE000122F032FF42EE52ED62EC72EB82EA92E98
:101AF00019828AEF8A8784E090E09D838C8381E05D
:101B00008C8782E090E09B838A83CE0101960E94BD
:101B1000C0071093350200933602F0923702E0922C
:101B20003802D0923902C0923A02B0923B02A0929F
:101B30003C0210932D0200932E02F0922F02E092AD
:101B40003002D0923102C0923202B0923302A0929F
:101B5000340279C0B99B77C080913502309136024A
:101B60004091370260913802E0913902A0913A0227
:101B700010913B0250913C02082F015091E0081750
:101B800008F090E0832F815021E0831708F020E0D7
:101B9000B92FB80F91E0B81708F090E0292B842FE7
:101BA000815031E0841708F030E0F22FF80F91E017
:101BB000F81708F090E0392B862F815021E0861726
:101BC00008F020E0732F780F91E0781708F090E08C
:101BD000292B8E2F815031E08E1708F030E0622FD4
:101BE000680F91E0681708F090E0392B8A2F815038
:101BF00021E08A1708F020E0432F480F91E04817B2
:101C000008F090E0292B812F815091E0811708F096
:101C100090E0322F380F21E0381708F020E0922BA7
:101C20005150950F00933502B0933602F09337026E
:101C3000709338026093390240933A0230933B022A
:101C400090933C02B99A709135026091360250919E
:101C50003702409138023091390220913A02909136
:101C60003B0280913C0218160CF474CF8823A9F42F
:101C7000992309F06FCF222309F06CCF332309F0A9
:101C800069CF442309F066CF552309F063CF66235B
:101C900009F060CF772309F05DCF2E960FB6F89448
:101CA000DEBF0FBECDBFCF91DF911F910F91FF908F
:101CB000EF90DF90CF90BF90AF900895AF92BF921A
:101CC000CF92DF92EF92FF920F931F93DF93CF9308
:101CD000CDB7DEB72E970FB6F894DEBF0FBECDBFDF
:101CE000122F032FF42EE52ED62EC72EB82EA92E96
:101CF000198280E18A8781E090E09D838C8381E076
:101D00008C8782E090E09B838A83CE0101960E94BB
:101D10000E051093350200933602F0923702E092DE
:101D20003802D0923902C0923A02B0923B02A0929D
:101D30003C0210932D0200932E02F0922F02E092AB
:101D40003002D0923102C0923202B0923302A0929D
:101D5000340270912D0260912E0250912F02409119
:101D60003002309131022091320290913302809101
:101D70003402181674F3882371F4992351F722233F
:101D800041F7332331F7442321F7552311F7662315
:101D900001F77723F1F62E960FB6F894DEBF0FBE4B
:101DA000CDBFCF91DF911F910F91FF90EF90DF900A
:101DB000CF90BF90AF900895AF92BF92CF92DF9235
:101DC000EF92FF920F931F93DF93CF93CDB7DEB7C0
:101DD00063970FB6F894DEBF0FBECDBF122F032F4F
:101DE000F42EE52ED62EC72EB82EA92E198280E10C
:101DF00090E09B878A8781E090E09D838C8381E0DF
:101E0000888B84E090E09B838A83CE0101960E94B8
:101E100001061093350200933602F0923702E092E9
:101E20003802D0923902C0923A02B0923B02A0929C
:101E30003C0210932D0200932E02F0922F02E092AA
:101E40003002D0923102C0923202B0923302A0929C
:101E5000340270912D0260912E0250912F02409118
:101E60003002309131022091320290913302809100
:101E70003402181674F3882371F4992351F722233E
:101E800041F7332331F7442321F7552311F7662314
:101E900001F77723F1F663960FB6F894DEBF0FBE15
:101EA000CDBFCF91DF911F910F91FF90EF90DF9009
:101EB000CF90BF90AF900895AF92BF92CF92DF9234
:101EC000EF92FF920F931F93DF93CF93CDB7DEB7BF
:101ED0002E970FB6F894DEBF0FBECDBF122F032F83
:101EE000F42EE52ED62EC72EB82EA92E198280E10B
:101EF0008A8781E090E09D838C8381E08C8782E0FB
:101F000090E09B838A83CE0101960E94C0071093C4
:101F1000350200933602F0923702E0923802D092F6
:101F20003902C0923A02B0923B02A0923C02109356
:101F30002D0200932E02F0922F02E0923002D092F6
:101F40003102C0923202B0923302A09234027091F8
:101F50002D0260912E0250912F024091300230915B
:101F6000310220913202909133028091340218168E
:101F700074F3882371F4992351F7222341F7332313
:101F800031F7442321F7552311F7662301F777230F
:101F9000F1F62E960FB6F894DEBF0FBECDBFCF91EF
:101FA000DF911F910F91FF90EF90DF90CF90BF9046
:101FB000AF900895DF93CF93CDB7DEB72E970FB6CE
:101FC000F894DEBF0FBECDBF198280E18A8781E021
:101FD00090E09D838C8381E08C8782E090E09B83FE
:101FE0008A83CE0101960E940E052E960FB6F894B4
:101FF000DEBF0FBECDBFCF91DF9108959C019091C0
:10200000450280912601891770F0E0914502F0E0C9
:10201000EE0FFF1FEA5BFD4F318320838091450265
:102020008F5F8093450208950F931F93D901182F56
:10203000092F209145028091260130E090E0019621
:102040008217930794F0E0914502F0E093E0EE0FE1
:10205000FF1F9A95E1F7EA59FD4FA083B1834283B0
:10206000538364837583168307831F910F910895AB
:1020700088E18093C10086E08093C20087E6809368
:10208000C4000895E0ECF0E090818093C600808168
:10209000806480830895E0ECF0E080818081806836
:1020A00080838091C6000895A7E7B0E0EAE5F0E1FB
:1020B0000C94E618982E892E712E88E0FE01319638
:1020C000DF01682E1D926A94E9F729833A834B83D6
:1020D0005C836D837E839F829887FE013996DF0142
:1020E0001D928A95E9F7A986BA86CB86DC86ED86AD
:1020F000FE860F87188B8D819E81AF81B885B7FDD5
:1021000007C0E1961CAE1DAE1EAE1FAEE19764C0C7
:10211000219581E0121608F080E0319591E01316C8
:1021200008F090E0B32FB81B81E03B1708F080E087
:10213000982B419531E0141608F030E0A42FA91B2C
:1021400081E04A1708F080E0382B519591E0151690
:1021500008F090E0F52FF31B81E05F1708F080E0B6
:10216000982B619531E0161608F030E0E62FE91B58
:1021700081E06E1708F080E0382B719541E017166A
:1021800008F040E0572F531B81E0751708F080E0FE
:10219000482B892D819591E0181608F090E0682E63
:1021A000641A462D31E0861508F030E0932B882D17
:1021B0008195891B2983BA83AB83FC83ED835E837E
:1021C0004F8388872FEF3FEF4FEF5FEFE1962CAF04
:1021D0003DAF4EAF5FAFE1978D859E85AF85B889E6
:1021E000B7FF5AC0A19481E01A1408F080E0B194BE
:1021F00091E01B1408F090E06B2D681B81E0B6168F
:1022000008F080E0982BC19421E01C1408F020E035
:102210005C2D591B81E0C51608F080E0282BD19475
:1022200091E01D1408F090E04D2D421B81E0D41682
:1022300008F080E0982BE19421E01E1408F020E0E3
:102240003E2D391B81E0E31608F080E0282BF19445
:1022500091E01F1408F090E07F2D721B272F81E082
:10226000F71608F080E0982B019511E0101608F0A1
:1022700010E0802F891B982F81E0091708F080E07B
:10228000182B872D8195811BA9866A875B874C87D0
:102290003D872E879F87888B99812A813B814C813E
:1022A0005D816E817F81A885B9851A850B85FC8447
:1022B000ED84DE84CF84B88888E0E9E18E2E912C0D
:1022C0008C0E9D1EF401682E11926A94E9F7998F85
:1022D0002A8F3B8F4C8F5D8F6E8F7F8FA8A39E01BF
:1022E0002F5D3F4FF90111928A95E9F7B9A31AA31F
:1022F0000BA3FCA2EDA2DEA2CFA2B8A629A03AA011
:102300004BA05CA0ADA0BEA0CFA0D8A4498D5A8D93
:102310006B8D7C8DE5964FAFE597E6965FAFE697C0
:10232000E7966FAFE797E8967FAFE897E8966CACD3
:102330007DAC8EAC9FACE8972D966CAE7DAE8EAE2C
:102340009FAE2D978D8D9E8D2F8D38A13C0149011B
:1023500061966CAE7DAE8EAE9FAE6197A114B10456
:10236000C104D10409F028C36214730484049504E1
:1023700008F00EC100E0201600E0300601E0400643
:1023800000E0500688F41FEF211631044104510487
:1023900039F030F088E0E82EF12C012D112D18C015
:1023A000EE24FF24870114C020E0221620E032062C
:1023B00020E0420621E0520630F0B8E1EB2EF12C8D
:1023C000012D112D05C0A0E1EA2EF12C012D112DBA
:1023D000D201C1010E2C04C0B695A795979587959B
:1023E0000A94D2F7895D9E4FDC012C9180E290E047
:1023F000A0E0B0E08E199F09A00BB10B5C016D014C
:10240000A21AB108C108D1086596ACAEBDAECEAE79
:10241000DFAE6597A114B104C104D10409F445C02D
:1024200062966FAD6297062E04C0220C331C441CCA
:10243000551C0A94D2F7A4019301062E04C0220F62
:10244000331F441F551F0A94D2F780E290E08A1987
:102450009B09E896CCACDDACEEACFFACE89704C0D1
:10246000F694E794D794C7948A95D2F787017601BA
:10247000E22AF32A042B152B6196ECAEFDAE0EAFCB
:102480001FAF6197E8960CAD1DAD2EAD3FADE8973F
:1024900004C0000F111F221F331F6A95D2F72D961B
:1024A0000CAF1DAF2EAF3FAF2D973201882499247A
:1024B000A20191014070507069962CAF3DAF4EAFB4
:1024C0005FAF699761966CAD7DAD8EAD9FAD619745
:1024D000A40193010E94C4187B018C0161966CAD2C
:1024E0007DAD8EAD9FAD6197A40193010E94C4188C
:1024F000CA01B90169962CAD3DAD4EAD5FAD69978E
:102500000E94A5189B01AC018701FF24EE242D96A3
:10251000ACACBDACCEACDFAC2D97C601AA27BB27B7
:1025200057016801A82AB92ACA2ADB2AA216B306CB
:10253000C406D50690F4A20CB31CC41CD51CA2146E
:10254000B304C404D50448F0A216B306C406D506E5
:1025500020F4A20CB31CC41CD51CA21AB30AC40AD2
:10256000D50AC601B501A40193010E94C4187B01DC
:102570008C01C601B501A40193010E94C418CA01CF
:10258000B90169962CAD3DAD4EAD5FAD6997C8C13F
:10259000211431044104510471F461E070E080E0E1
:1025A00090E020E030E040E050E00E94C418C90113
:1025B000DA011C012D0100E0201600E0300601E0E8
:1025C000400600E0500688F41FEF21163104410454
:1025D000510439F030F068E0E62EF12C012D112D78
:1025E00018C0EE24FF24870114C020E0221620E04A
:1025F000320620E0420621E0520630F058E1E52E96
:10260000F12C012D112D05C040E1E42EF12C012DFE
:10261000112DD201C1010E2C04C0B695A795979536
:1026200087950A94D2F7895D9E4FDC012C9130E2A8
:10263000A32EB12CC12CD12CD601C5018E199F0916
:10264000A00BB10B7C018D01E21AF10801091109FF
:102650006596ECAEFDAE0EAF1FAF6597E114F104C9
:102660000105110539F464015301A218B308C40827
:10267000D508ECC06296FFAC6297E496FFAEE49793
:102680000F2C04C0220C331C441C551C0A94D2F796
:102690008A2D8F1964015301082E04C0D694C79463
:1026A000B794A7940A94D2F7A401930104C0220F0F
:1026B000331F441F551FFA94D2F7E8966CAC7DACDB
:1026C0008EAC9FACE89704C09694879477946794F7
:1026D0008A95D2F784017301E22AF32A042B152B81
:1026E0002996ECAEFDAE0EAF1FAF299732018824BC
:1026F000992492018101207030706D960CAF1DAF4E
:102700002EAF3FAF6D97C601B501A40193010E94A2
:10271000C4187B018C01C601B501A40193010E947C
:10272000C418CA01B9016D962CAD3DAD4EAD5FAD7B
:102730006D970E94A5189B01AC018701FF24EE2430
:102740002996ACACBDACCEACDFAC2997C601AA27AC
:10275000BB275C016D01AE28BF28C02AD12AA21672
:10276000B306C406D50690F4A20CB31CC41CD51C39
:10277000A214B304C404D50448F0A216B306C406D8
:10278000D50620F4A20CB31CC41CD51CA21AB30A93
:10279000C40AD50AC601B501A40193010E94C41858
:1027A0007B018C01C601B501A40193010E94C418EC
:1027B000CA01B9016D962CAD3DAD4EAD5FAD6D97C3
:1027C0000E94A5189B01AC018701FF24EE242996E5
:1027D0008CAD9DADAEADBFAD2997A070B070570167
:1027E0006801A82AB92ACA2ADB2AA216B306C40697
:1027F000D50690F4A20CB31CC41CD51CA214B304BF
:10280000C404D50448F0A216B306C406D50620F4C5
:10281000A20CB31CC41CD51CE896ECACFDAC0EADF0
:102820001FADE897E4960FACE49704C0EE0CFF1CD4
:10283000001F111F0A94D2F72D96ECAEFDAE0EAF1D
:102840001FAF2D97A21AB30AC40AD50A32018824F1
:1028500099249201810120703070A1960CAF1DAFB8
:102860002EAF3FAFA197C601B501A40193010E940D
:10287000C4187B018C01C601B501A40193010E941B
:10288000C418CA01B901A1962CAD3DAD4EAD5FADE6
:10289000A1970E94A5189B01AC018701FF24EE249B
:1028A0002D96ACACBDACCEACDFAC2D97C601AA2743
:1028B000BB2757016801A82AB92ACA2ADB2AA2160F
:1028C000B306C406D50690F4A20CB31CC41CD51CD8
:1028D000A214B304C404D50448F0A216B306C40677
:1028E000D50620F4A20CB31CC41CD51CA21AB30A32
:1028F000C40AD50AC601B501A40193010E94C418F7
:102900007B018C01C601B501A40193010E94C4188A
:10291000CA01B901A1962CAD3DAD4EAD5FADA197F9
:102920000E94A5189B01AC018701FF24EE242D967F
:102930008CAD9DADAEADBFAD2D97A070B070E82A47
:10294000F92A0A2B1B2BE216F3060407150790F44D
:10295000E20CF31C041D151DE214F3040405150517
:1029600048F0E216F3060407150720F4E20CF31C06
:10297000041D151DE21AF30A040B150BD801C7013B
:1029800062960FAC629704C0B695A7959795879508
:102990000A94D2F789A79AA7ABA7BCA71DA61EA623
:1029A0001FA618AA898B8AA58A8B8BA58B8B8CA5D1
:1029B0008C8B8DA58D8B2FC36A147B048C049D0496
:1029C00048F4498B5A8B6B8B7C8B8D8B9E8B2F8B1A
:1029D000388F27C300E0A01600E0B00601E0C00673
:1029E00000E0D00688F41FEFA116B104C104D104A1
:1029F00039F030F028E0E22EF12C012D112D18C015
:102A0000EE24FF24870114C020E0A21620E0B206C5
:102A100020E0C20621E0D20630F098E1E92EF12C48
:102A2000012D112D05C080E1E82EF12C012D112D75
:102A3000D601C5010E2C04C0B695A795979587952C
:102A40000A94D2F7895D9E4FDC012C9180E290E0E0
:102A5000A0E0B0E08E199F09A00BB10B821B910979
:102A6000A109B1090097A105B10509F059C0A61443
:102A7000B704C804D90470F0E896ECACFDAC0EAD18
:102A80001FADE897E214F3040405150518F4D80106
:102A9000C7012FC0E8968CAD9DADAEADBFADE89738
:102AA00082199309A409B509A40193012A193B09C4
:102AB0004C095D09AA24BB246501E8966CAC7DAC89
:102AC0008EAC9FACE897681679068A069B0628F4B8
:102AD00011E0A12EB12CC12CD12C79018A01EA1868
:102AE000FB080C091D096196ECAEFDAE0EAF1FAFE1
:102AF000619789A79AA7ABA7BCA761960CAD1DAD3E
:102B00002EAD3FAD61970DA71EA72FA738AB898BC0
:102B10008AA58A8B8BA58B8B8CA58C8B0D8B7BC20E
:102B2000E3968FAFE397A6019501082E04C0220F0C
:102B3000331F441F551F0A94D2F710E2181BE29668
:102B40001FAFE297D201C101012E04C0B695A7952F
:102B5000979587950A94D2F75C016D01A22AB32A52
:102B6000C42AD52A2596ACAEBDAECEAEDFAE259733
:102B700072016101E3960FACE39704C0CC0CDD1C3D
:102B8000EE1CFF1C0A94D2F72196CCAEDDAEEEAE61
:102B9000FFAE219764015301012E04C0D694C7945F
:102BA000B794A7940A94D2F7A4019301E3960FACCB
:102BB000E39704C0220F331F441F551F0A94D2F716
:102BC000E8968CAD9DADAEADBFADE89704C0B695AF
:102BD000A795979587951A95D2F77C018D01E22AE2
:102BE000F32A042B152BE9AEFAAE0BAF1CAFE89617
:102BF0000CAD1DAD2EAD3FADE897E3960FACE3975E
:102C000004C0000F111F221F331F0A94D2F70DAB0F
:102C10001EAB2FAB38AF25962CAD3DAD4EAD5FADA5
:102C200025973A018824992440705070A5962CAFBE
:102C30003DAF4EAF5FAFA597C601B501A4019301AB
:102C40000E94C4187B018C01C601B501A401930147
:102C50000E94C418C901DA011C012D01C201B10191
:102C6000A5962CAD3DAD4EAD5FADA5970E94A518C4
:102C70009B01AC018701FF24EE24A9ACBAACCBAC1C
:102C8000DCACC601AA27BB2757016801A82AB92ACC
:102C9000CA2ADB2AA216B306C406D50610F5089484
:102CA00021083108410851082596ECACFDAC0EAD69
:102CB0001FAD2597AE0CBF1CC01ED11EAE14BF04A5
:102CC000C006D10670F0A216B306C406D50648F4B5
:102CD00008942108310841085108AE0CBF1CC01EE1
:102CE000D11EA21AB30AC40AD50AC601B501A401AD
:102CF00093010E94C4187B018C01C601B501A40197
:102D000093010E94C418C901DA013C014D01C401BC
:102D1000B301A5962CAD3DAD4EAD5FADA5970E941C
:102D2000A5189B01AC018701FF24EE2489AD9AAD63
:102D3000ABADBCADA070B07057016801A82AB92A2C
:102D4000CA2ADB2AA216B306C406D50610F50894D3
:102D5000610871088108910825966CAD7DAD8EAD36
:102D60009FAD2597A60EB71EC81ED91EA616B7067C
:102D7000C806D90670F0A216B306C406D50648F4F4
:102D800008946108710881089108A60EB71EC81E34
:102D9000D91ED601C501821B930BA40BB50B89ABC1
:102DA0009AABABABBCABD1019927882784017301E7
:102DB000E82AF92A0A2B1B2B8FEFA82E8FEFB82EAB
:102DC000C12CD12CAE20BF20C022D12278010027F7
:102DD000112721966CAC7DAC8EAC9FAC21972FEF68
:102DE0003FEF40E050E06222732284229522219638
:102DF0006CAD7DAD8EAD9FAD2197AC016627772779
:102E0000AD964CAF5DAF6EAF7FAFAD97C601B5016C
:102E1000A40193010E94A518A9966CAF7DAF8EAF57
:102E20009FAFA997C601B501AD962CAD3DAD4EAD96
:102E30005FADAD970E94A5181B012C01C801B70119
:102E4000A40193010E94A5185B016C01C801B701A0
:102E5000AD962CAD3DAD4EAD5FADAD970E94A518C2
:102E60007B018C01A6019501220D331D441D551DCA
:102E7000A9966CAC7DAC8EAC9FACA997C401AA2777
:102E8000BB27280F391F4A1F5B1F2A153B054C051E
:102E90005D0548F4812C912CE1E0AE2EB12CE80CBC
:102EA000F91C0A1D1B1DCA01AA27BB27570168016F
:102EB000A80EB91ECA1EDB1EA90133272227A99618
:102EC0008CAD9DADAEADBFADA997A070B070280F11
:102ED000391F4A1F5B1FE9A8FAA80BA91CA9EA140D
:102EE000FB040C051D0570F0AE14BF04C006D1062E
:102EF00089F56DA97EA98FA998AD6217730784071C
:102F0000950740F5DA01C90121966CAC7DAC8EAC19
:102F10009FAC219786199709A809B9092596ECACA9
:102F2000FDAC0EAD1FAD2597AE18BF08C00AD10A83
:102F3000EE24FF248701281739074A075B0728F486
:102F400021E0E22EF12C012D112DAE18BF08C00A90
:102F5000D10A02C0DA01C9016DA87EA88FA898AC79
:102F6000681A790A8A0A9B0A09A91AA92BA93CA9F5
:102F70000A191B092C093D0958016901222433242F
:102F800021012DA93EA94FA958AD261537054805A1
:102F9000590528F481E0282E312C412C512C860132
:102FA0007501E218F30804091509A8019701E296D2
:102FB0000FACE29704C0220F331F441F551F0A9421
:102FC000D2F7D401C301E3960FACE39704C0B695E2
:102FD000A795979587950A94D2F7282B392B4A2BDA
:102FE0005B2B29A73AA74BA75CA7E3960FACE39707
:102FF00004C016950795F794E7940A94D2F7EDA6C6
:10300000FEA60FA718AB298B8AA58A8B8BA58B8B65
:103010008CA58C8BED8A8EA58E8B8FA58F8B88A926
:10302000888FE1964CAD5DAD6EAD7FADE1974115FA
:1030300051056105710509F467C089892A893B89B1
:103040004C895D89AE89BF89188DF82FF19591E083
:103050001F1608F090E0822F819521E0181608F0E5
:1030600020E0E82FE91B91E08E1708F090E0292B73
:10307000832F819531E0181608F030E0782F721B0D
:1030800091E0871708F090E0392B842F819521E09B
:10309000181608F020E0682F631B91E0861708F0EF
:1030A00090E0292B852F819531E0181608F030E04B
:1030B000582F521B91E0851708F090E0392B8A2F8A
:1030C000819521E0181608F020E0482F431B91E07D
:1030D000841708F090E0292B8B2F819591E018162A
:1030E00008F090E0382F321B21E0831708F020E031
:1030F000922B812F8195891BF98BEA8B7B8B6C8BB3
:103100005D8B4E8B3F8B888F29893A894B895C89EF
:103110006D897E898F89988DC958DF4FE2E10C94C3
:103120000219AA1BBB1B51E107C0AA1FBB1FA61790
:10313000B70710F0A61BB70B881F991F5A95A9F760
:1031400080959095BC01CD010895629FD001739F39
:10315000F001829FE00DF11D649FE00DF11D929F33
:10316000F00D839FF00D749FF00D659FF00D992772
:10317000729FB00DE11DF91F639FB00DE11DF91F96
:10318000BD01CF0111240895A1E21A2EAA1BBB1B79
:10319000FD010DC0AA1FBB1FEE1FFF1FA217B30723
:1031A000E407F50720F0A21BB30BE40BF50B661F39
:1031B000771F881F991F1A9469F7609570958095FD
:1031C00090959B01AC01BD01CF0108952F923F92D4
:1031D0004F925F926F927F928F929F92AF92BF9227
:1031E000CF92DF92EF92FF920F931F93CF93DF93D3
:1031F000CDB7DEB7CA1BDB0B0FB6F894DEBF0FBE30
:10320000CDBF09942A88398848885F846E847D847C
:103210008C849B84AA84B984C884DF80EE80FD807E
:103220000C811B81AA81B981CE0FD11D0FB6F894F4
:0E323000DEBF0FBECDBFED010895F894FFCFB5
:10323E000102030405060708090A0B0C0D0E0F10F8
:10324E000102030405060708090A0B0CBF06DBCFB3
:10325E0066EDFD87FFEF1300010202030303030473
:10326E000404040404040405050505050505050507
:10327E0005050505050505060606060606060606E7
:10328E0006060606060606060606060606060606D0
:10329E0006060606060606070707070707070707B7
:1032AE0007070707070707070707070707070707A0
:1032BE000707070707070707070707070707070790
:1032CE000707070707070707070707070707070780
:1032DE000707070707070708080808080808080867
:1032EE000808080808080808080808080808080850
:1032FE000808080808080808080808080808080840
:10330E00080808080808080808080808080808082F
:10331E00080808080808080808080808080808081F
:10332E00080808080808080808080808080808080F
:10333E0008080808080808080808080808080808FF
:10334E0008080808080808080808080808080808EF
:08335E0008080808080808002F
:00000001FF
